:020000040800F2
:1000000000500020F5180008691300086F1300085D
:10001000751300087B13000881130008000000001E
:100020000000000000000000000000003D19000872
:1000300087130008000000003D1900083D19000862
:100040003D1900083D1900083D1900083D19000838
:100050003D1900083D1900083D1900083D19000828
:100060003D1900083D1900083D1900083D19000818
:100070003D190008951300083D1900083D190008B6
:100080003D1900083D1900083D1900083D190008F8
:100090003D1900083D1900083D1900083D190008E8
:1000A0003D190008A91300083D1900083D19000872
:1000B000BD1300083D1900083D1900083D1900084E
:1000C0003D1900083D1900083D1900083D190008B8
:1000D0003D1900083D1900083D190008D11300081A
:1000E0003D1900083D1900083D19000800000000F6
:1000F0000000000000000000000000000000000000
:0C01000000000000000000005FF808F1A3
:10010C0010B5054C237833B9044B13B10448AFF345
:10011C0000800123237010BD80000020000000002F
:10012C00D463000808B5034B1BB103490348AFF374
:10013C00008008BD0000000084000020D46300088B
:10014C00034613F8012B002AFBD1181A013870470B
:10015C0080B582B000AF0C4B5B690B4A43F00103D6
:10016C005361094B5B6903F001037B607B680022E0
:10017C0000210D2001F0E9FC0D2001F002FD00BF73
:10018C000837BD4680BD00BF0010024080B582B06C
:10019C0000AF78601349144801F028FB114912484C
:1001AC0005F0E0F879680F4805F0DDF90346002BFF
:1001BC000DD00E4801F01AFB0D4805F059F94FF41B
:1001CC0080620021074805F01FF8042306E04FF475
:1001DC0080620021034805F017F8032318460837FE
:1001EC00BD4680BD28130020EC630008186400088D
:1001FC003864000880B586B000AFF860B9607A60EA
:10020C00FB707B687B610023FB744FF480620021E0
:10021C00364804F0F9FFF968354801F0E7FAF96857
:10022C00334805F09FF8FB78002B04D1F96831486E
:10023C0001F004FB03E0F9682F4801F0FFFA2F48A6
:10024C0001F0D4FA2E4805F013F922E02D4B1B785F
:10025C00DBB2012B1AD1B868FFF798FF0346FB7489
:10026C00FB7C042B05D1284801F0C0FA274805F087
:10027C00FFF8274B00221A70224B00221A704FF401
:10028C0080621A49234803F06EFA07E0012001F05E
:10029C0083FB7B695A1E7A61002BD7D1FB7C032B25
:1002AC0007D11D4801F0A2FA1C4805F0E1F8FB7CCF
:1002BC0017E07B69002B0DDC194801F097FA1948FF
:1002CC0001F094FA184805F0D3F8184805F0D0F866
:1002DC00022306E0164801F089FA164805F0C8F822
:1002EC00012318461837BD4680BD00BF28130020D7
:1002FC0058640008786400087C6400088464000872
:10030C00A4640008A5000020C4640008E46400088C
:10031C00A4000020E4060020046500081C65000809
:10032C00306500084C650008606500087C650008B5
:10033C008C6500089865000880B584B000AF7860C3
:10034C007B68FB6000228021264802F04BF84FF4BA
:10035C00FA7001F021FB01228021224802F042F8C0
:10036C00214805F085F81EE0204B1B78DBB2012BF1
:10037C0016D11F4801F03AFA1E4805F079F86420AE
:10038C0001F00AFB1C4B00221A70184B00221A7049
:10039C004FF4806219491A4803F0E5F901231CE077
:1003AC00012001F0F9FAFB685A1EFA60002BDBD130
:1003BC00FB68002B0DDC134801F018FA124801F011
:1003CC0015FA124805F054F8114805F051F80223BB
:1003DC0003E0104805F04CF8FF2318461037BD46D3
:1003EC0080BD00BF000C0140A4650008A5000020E2
:1003FC00C4650008E0650008A40000202813002054
:10040C00E4060020306500084C650008FC65000817
:10041C007C6500081866000880B582B000AF262302
:10042C00FB80FB88184604F0D9FE03463B60FB8832
:10043C001A460021386804F0E7FE0E4B0E4A0F49AD
:10044C00386805F02DF801230D4A0E493868FFF77E
:10045C00D1FE0346012B03D10B4B05221A7002E08F
:10046C00094B06221A70084B1B7818460837BD46F4
:10047C0080BD00BF386600083C660008486600086E
:10048C00FDFF0200606600080000002080B582B00D
:10049C0000AF3423FB80FB88184604F09FFE034614
:1004AC003B60FB881A460021386804F0ADFE114B06
:1004BC00114A1249386801F099F90E4B0E4A0F494E
:1004CC00386804F04FFF01230D4A0E493868FFF7D6
:1004DC0091FE0346012B03D10B4B07221A7002E04D
:1004EC00094B08221A70084B1B7818460837BD4672
:1004FC0080BD00BF70660008786600088C66000836
:10050C00FDFF0200A86600080000002080B582B044
:10051C0000AF0023FB71B44801F068F9B34804F054
:10052C00A7FFB34B1B780133DAB2B14B1A701CE046
:10053C00FB790133FB714FF47A7001F02DFAFB79E2
:10054C00012B12D9AB4801F051F9AB4804F090FFE4
:10055C000023FB71A94BEE221A70A54B1B78013BB3
:10056C00DAB2A34B1A700023DAE20A20FFF7E4FE9A
:10057C000346012BDCD14FF4FA6001F00DFA002395
:10058C00FB719F4801F032F99E4804F071FF984BC3
:10059C001B780133DAB2964B1A7019E0FB790133F0
:1005AC00FB7140F2DC5001F0F7F9FB79012B0FD90C
:1005BC00954801F01BF9954804F05AFF0023FB7194
:1005CC008B4B1B78013BDAB2894B1A700023A7E2E4
:1005DC0000234FF6FF728E498D48FFF70BFE034642
:1005EC00012BDBD1854B0A221A7040F2DC5001F052
:1005FC00D3F90023FB71874801F0F8F8864804F022
:10060C0037FF7B4B1B780133DAB2794B1A7019E048
:10061C00FB790133FB714FF47A7001F0BDF9FB7972
:10062C00012B0FD97D4801F0E1F87D4804F020FF43
:10063C000023FB716E4B1B78013BDAB26C4B1A70CA
:10064C0000236DE201234FF4FA7276497648FFF7E6
:10065C00D1FD0346012BDBD1642001F09DF9002371
:10066C00FB71724801F0C2F8714804F001FF604B55
:10067C001B780133DAB25E4B1A7019E0FB79013347
:10068C00FB714FF47A7001F087F9FB79012B0FD9CC
:10069C00684801F0ABF8684804F0EAFE0023FB71EF
:1006AC00534B1B78013BDAB2514B1A70002337E2E3
:1006BC0001234FF4FA725B496048FFF79BFD034638
:1006CC00012BDBD1642001F067F90023FB715C483E
:1006DC0001F08CF85B4804F0CBFE454B1B780133E2
:1006EC00DAB2434B1A7019E0FB790133FB714FF40A
:1006FC007A7001F051F9FB79012B0FD9524801F0B6
:10070C0075F8524804F0B4FE0023FB71384B1B788B
:10071C00013BDAB2364B1A70002301E201234FF48D
:10072C00FA7240494A48FFF765FD0346012BDBD1BD
:10073C00642001F031F90023FB71464801F056F8B2
:10074C00454804F095FE2A4B1B780133DAB2284B4E
:10075C001A7019E0FB790133FB714FF47A7001F0D8
:10076C001BF9FB79012B0FD93C4801F03FF83C48B1
:10077C0004F07EFE0023FB711D4B1B78013BDAB2AB
:10078C001B4B1A700023CBE1FFF746FE0346052BEB
:10079C00E0D14FF47A7001F0FFF80023FB71314B7C
:1007AC001B78052B70D165E0FB790133FB714FF49D
:1007BC007A7001F0F1F8FB79002B5BD02A4801F03C
:1007CC0015F82A4801F012F8294804F051FE274880
:1007DC0004F0C8FD0023FB71054B1B78013BDAB21A
:1007EC00034B1A7050E000BFB0660008D4660008D6
:1007FC009C000020F8660008186700080100002023
:10080C003867000870670008A4670008DC670008F8
:10081C001068000814680008346800085468000860
:10082C007468000890680008946800089C680008C8
:10083C00C0680008E46800080C6900083469000806
:10084C0044690008706900089C690008C8690008C0
:10085C00F4690008046A0008286A0008486A00085D
:10086C00686A000800000020886A0008B06A000866
:10087C00EC6A000801234FF6FF72AB49AB48FFF757
:10088C00B9FC0346012B8FD14FF47A7001F084F838
:10089C000023FB71A64B1B78052B29D11EE0FB799D
:1008AC000133FB714FF47A7001F076F8FB79002B71
:1008BC0014D0A04800F09AFF9F4800F097FF9F4883
:1008CC0004F0D6FD9C4804F04DFD0023FB719C4BBD
:1008DC001B78013BDAB29A4B1A7009E001234FF6F0
:1008EC00FF7291499748FFF785FC0346012BD6D13F
:1008FC004FF47A7001F050F80023FB71924800F02D
:10090C0075FF924804F0B4FD8D4B1B780133DAB2BD
:10091C008B4B1A7019E0FB790133FB714FF47A7031
:10092C0001F03AF8FB79012B0FD9894800F05EFFF2
:10093C00884804F09DFD0023FB71814B1B78013B23
:10094C00DAB27F4B1A700023EAE001234FF47A727B
:10095C0075498148FFF74EFC0346012BDBD14FF460
:10096C007A7001F019F80023FB717C4800F03EFF0F
:10097C007B4804F07DFD724B1B780133DAB2704B6F
:10098C001A7019E0FB790133FB714FF47A7001F0A6
:10099C0003F8FB79012B0FD9724800F027FF72483E
:1009AC0004F066FD0023FB71654B1B78013BDAB24A
:1009BC00634B1A700023B3E001234FF47A725A4947
:1009CC006A48FFF717FC0346012BDBD14FF47A7012
:1009DC0000F0E2FF0023FB71654800F007FF65485B
:1009EC0004F046FD564B1B780133DAB2544B1A70A7
:1009FC0019E0FB790133FB714FF47A7000F0CCFFF6
:100A0C00FB79012B0FD95C4800F0F0FE5B4804F039
:100A1C002FFD0023FB714A4B1B78013BDAB2484B8C
:100A2C001A7000237CE001234FF47A723E4954483B
:100A3C00FFF7E0FB0346012BDBD14FF47A7000F09B
:100A4C00ABFF0023FB714F4800F0D0FE4E4804F082
:100A5C000FFD3B4B1B780133DAB2394B1A7019E09E
:100A6C00FB790133FB714FF47A7000F095FFFB7941
:100A7C00012B0FD9454800F0B9FE454804F0F8FCAD
:100A8C000023FB712E4B1B78013BDAB22C4B1A70F6
:100A9C00002345E0FFF7FAFC0346072BE0D14FF4A7
:100AAC007A7000F079FF0023FB713A4800F09EFE4B
:100ABC00394804F0DDFC224B1B780133DAB2204BB1
:100ACC001A7019E0FB790133FB714FF47A7000F066
:100ADC0063FFFB79012B0FD9304800F087FE3048BB
:100AEC0004F0C6FC0023FB71154B1B78013BDAB2FA
:100AFC00134B1A70002313E001234FF47A720A4946
:100B0C002848FFF777FB0346012BDBD1264B092244
:100B1C001A704FF47A7000F03FFF0023FB71012331
:100B2C0018460837BD4680BD90680008306B000839
:100B3C0000000020406B0008B06A0008746B0008CD
:100B4C009C000020A86B0008B86B0008DC6B000848
:100B5C00FC6B0008346C00086C6C0008806C00089E
:100B6C00B46C0008E86C0008146D0008406D0008B7
:100B7C004C6D0008846D0008BC6D0008FC6D00080D
:100B8C00386E0008486E0008746E0008A06E0008ED
:100B9C00CC6E0008F86E0008286F0008546F00082F
:100BAC008C6F0008C46F00080100002080B588B06D
:100BBC0000AF07F1100300221A605A609A60DA60E5
:100BCC00484B9B69474A43F010039361454B9B6923
:100BDC0003F01003FB60FB68424B9B69414A43F0F6
:100BEC00200393613F4B9B6903F02003BB60BB6800
:100BFC003C4B9B693B4A43F004039361394B9B6923
:100C0C0003F004037B607B68364B9B69354A43F0E9
:100C1C0008039361334B9B6903F008033B603B680B
:100C2C00002243F27031304801F0DCFB002249F61F
:100C3C00F3712E4801F0D6FB002241F6D3712C48FB
:100C4C0001F0D0FB002204212A4801F0CBFB43F237
:100C5C0070333B6101237B610023BB610223FB6189
:100C6C0007F110031946204801F038FA49F6F373DE
:100C7C003B6101237B610023BB610223FB6107F114
:100C8C0010031946194801F029FA41F6D3733B6158
:100C9C0001237B610023BB610223FB6107F110037D
:100CAC001946134801F01AFA80233B61124B7B6101
:100CBC000023BB6107F1100319460B4801F00EFA33
:100CCC0004233B6101237B610023BB610223FB6195
:100CDC0007F110031946074801F000FA00BF20374E
:100CEC00BD4680BD001002400010014000080140CC
:100CFC00000C0140001401400000111080B500AF41
:100D0C0004F0CEF800F016FE00F038F8FFF74EFFB6
:100D1C00FFF71EFA00F0D8FB00F080F900F0B6F9EE
:100D2C0000F06EFC00F042FC104804F0A1FBFFF751
:100D3C00EDFB0346012B03D10D4B00221A700CE086
:100D4C000B4B1B780133DAB2094B1A70084B1B782A
:100D5C00092BECD9074804F08BFB00F0B5F80346DF
:100D6C00012B02D0044804F083FBFEE7D06F00088F
:100D7C009D000020E86F00083870000880B590B026
:100D8C0000AF07F1180328220021184604F03CFAA2
:100D9C003B1D00221A605A609A60DA601A610123C6
:100DAC00BB614FF48033FB6100233B620123BB62C8
:100DBC0002237B634FF48033BB634FF48013FB63DC
:100DCC0007F11803184601F025FB0346002B01D050
:100DDC0000F02CF80F237B600223BB600023FB6028
:100DEC004FF480633B6100237B613B1D022118465D
:100DFC0001F090FD0346002B01D000F017F800BF66
:100E0C004037BD4680BD000080B582B000AF786031
:100E1C007B681B68044A934201D100F0A1FD00BF1E
:100E2C000837BD4680BD00BF002C014080B400AF28
:100E3C0072B600BFFEE7000080B582B000AF7860EC
:100E4C0039600A4B00221A704FF480620021084866
:100E5C0004F0DAF93B689AB2FF237968054802F08E
:100E6C00F0FB3B6818460837BD4680BDA500002046
:100E7C0028130020E406002080B582B000AF786013
:100E8C0039600E4B1B78DBB2012B11D13B681A4633
:100E9C000B49786804F0AAF90A4B00221A70074B28
:100EAC0000221A704FF480620021054804F0ACF95E
:100EBC003B6818460837BD4680BD00BFA500002022
:100ECC0028130020A400002080B598B000AFFF23A9
:100EDC0087F85F30002387F85E30002387F85D3099
:100EEC00404B4FF480621A603F4A3B1D114658221A
:100EFC00184604F07BF93D4B3B613D4B7B643D4B0D
:100F0C003B653C23BB8304233B730123BB773A48EB
:100F1C0000F06CFC394804F0ABFA324B1B683A1DFC
:100F2C001946374803F038FA0346DBB287F85D30D0
:100F3C0097F85D3019463248FFF77EFF09E0294BE0
:100F4C001B68304A19462E4803F02DFD034687F8DE
:100F5C005F3097F85F30022BF1D14FF480622A4951
:100F6C002A4802F000FC1F4B1B6807F15D0107F1DA
:100F7C005E00234A03F0FCFA0346012BE9D197F8F3
:100F8C005D30002BE5D197F85D30002B0BD097F836
:100F9C005D3019461E4800F029FC97F85D30194663
:100FAC001B4804F0DFF91B4800F020FC1A4804F041
:100FBC005FFA40F6B83000F0EFFC0A4B1B6819469C
:100FCC000F4803F062FB0346DBB287F85D3097F8FD
:100FDC005D3019460A48FFF72FFF0123184660378A
:100FEC00BD4680BD040000207C71000884700008A0
:100FFC0098700008A8700008B8700008007100080C
:10100C0060010020850E000828130020E406002053
:10101C00487100085C7100086C71000880B500AF65
:10102C00184B194A1A60174B4FF482725A60154BC1
:10103C004FF400429A60134B0022DA60114B0022ED
:10104C001A61104B00225A610E4B4FF400729A61D8
:10105C000C4B0822DA610B4B00221A62094B00225E
:10106C005A62084B00229A62064B0A22DA62054841
:10107C0001F01CFE0346002B01D0FFF7D7FE00BF8A
:10108C0080BD00BFB80500200030014080B500AF26
:10109C00174B184A1A60164B4FF482725A60144B55
:1010AC0000229A60124B0022DA60114B00221A6166
:1010BC000F4B00225A610E4B4FF400729A610C4B8D
:1010CC000022DA610A4B00221A62094B00225A6292
:1010DC00074B00229A62064B0A22DA62044801F09E
:1010EC00E5FD0346002B01D0FFF7A0FE00BF80BD3D
:1010FC00600500200038004080B58CB000AF7860EF
:10110C0007F11C0300221A605A609A60DA607B684F
:10111C001B68384A934232D1374B9B69364A43F4A9
:10112C0080539361344B9B6903F48053BB61BB695F
:10113C00314B9B69304A43F0080393612E4B9B69FA
:10114C0003F008037B617B692823FB6102233B626C
:10115C000323BB6207F11C031946284800F0BEFFAD
:10116C00274B5B68FB62FB6A43F0E063FB62FB6A44
:10117C0043F00103FB62224AFB6A536036E07B6852
:10118C001B68204A934231D11B4BDB691A4A43F44A
:10119C008043D361184BDB6903F480433B613B69AB
:1011AC00154B9B69144A43F008039361124B9B69DE
:1011BC0003F00803FB60FB684FF42043FB61022340
:1011CC003B620323BB6207F11C0319460B4800F07A
:1011DC0085FF4FF48043FB6100233B6200237B625D
:1011EC0007F11C031946054800F078FF00BF3037A3
:1011FC00BD4680BD0030014000100240000C014093
:10120C00000001400038004080B584B000AF184B9E
:10121C009B69174A43F001039361154B9B6903F0DB
:10122C000103BB60BB68124BDB69114A43F080536E
:10123C00D3610F4BDB6903F080537B607B6800222A
:10124C000F216FF0010000F080FC0A4B5B68FB6023
:10125C00FB6823F0E063FB60FB6843F00073FB600A
:10126C00044AFB68536000BF1037BD4680BD00BF09
:10127C00001002400000014080B58CB000AF7860D7
:10128C000023BB6200237B62002387F82F302E4B98
:10129C009B692D4A43F4006393612B4B9B6903F4C8
:1012AC000063BB60BB6807F10C0207F11003114629
:1012BC00184601F0ADFC01F097FCB862BB6A234AFA
:1012CC00A2FB03239B0C013B7B62214B214A1A603E
:1012DC001F4B40F2E732DA601D4A7B6A53601C4BAD
:1012EC0000221A611A4B00229A60194B00229A6153
:1012FC00174801F05FFD034687F82F3097F82F3021
:10130C00002B1BD1124801F0A5FD034687F82F30A6
:10131C0097F82F30002B11D1192000F032FC7B688C
:10132C000F2B08D800227968192000F00EFC0A4A0D
:10133C007B68136002E0012387F82F3097F82F3079
:10134C0018463037BD4680BD0010024083DE1B437B
:10135C0010060020002C01400C00002080B400AFCF
:10136C00FEE780B400AFFEE780B400AFFEE780B4C8
:10137C0000AFFEE780B400AFFEE780B400AF00BF63
:10138C00BD4680BC7047000080B500AF024800F03D
:10139C0071FD00BF80BD00BFA006002080B500AF6E
:1013AC00024801F0A9FD00BF80BD00BF100600205F
:1013BC0080B500AF024801F09FFD00BF80BD00BFAB
:1013CC005806002080B584B000AF0023FB601C4B96
:1013DC001B681B6803F01003102B0CBF01230023A8
:1013EC00DBB2FB60FB68002B22D000237B60144B2C
:1013FC001B681B687B60124B1B685B687B607B689F
:10140C000F4B1B681B68BB600D4B1B685B68BB609C
:10141C000B4802F0D8F90B4B1B685B68BB60BB68D0
:10142C00DBB25B42DAB2084B1A70084B01221A701D
:10143C00034802F023FA00BF1037BD4680BD00BF41
:10144C00E4060020A0060020A4000020A500002037
:10145C0080B586B000AF7860144A154BD31A7B6107
:10146C007B693B61134B1B68002B02D1114B124A59
:10147C001A60104B1A687B6813443A699A4207D277
:10148C0003F088FD03460C221A604FF0FF3309E08D
:10149C00084B1B68FB60074B1A687B681344054AB2
:1014AC001360FB6818461837BD4680BD00500020FD
:1014BC0000080000A00000208017002080B400AFBE
:1014CC0000BFBD4680BC704780B586B000AF07F149
:1014DC00080300221A605A609A60DA603B460022C8
:1014EC001A605A601E4B4FF080421A601C4B4FF42E
:1014FC00E1525A601A4B00229A60194B40F2F312D7
:10150C00DA60174B00221A61154B00229A611448BD
:10151C0001F050FC0346002B01D0FFF787FC4FF481
:10152C008053BB6007F1080319460D4801F0ECFD30
:10153C000346002B01D0FFF779FC00233B6000230E
:10154C007B603B461946064801F0BEFF0346002B64
:10155C0001D0FFF76BFC00BF1837BD4680BD00BF44
:10156C005806002080B584B000AF78607B681B689B
:10157C00B3F1804F13D10C4BDB690B4A43F00103E1
:10158C00D361094BDB6903F00103FB60FB680022AC
:10159C0005211C2000F0D9FA1C2000F0F2FA00BF43
:1015AC001037BD4680BD00BF0010024080B500AFB3
:1015BC00114B124A1A60104B4FF4E1325A600E4B29
:1015CC0000229A600C4B0022DA600B4B00221A614D
:1015DC00094B0C225A61084B00229A61064B0022DF
:1015EC00DA61054801F0E0FF0346002B01D0FFF75C
:1015FC001DFC00BF80BD00BF281700200044004028
:10160C0080B500AF114B124A1A60104B4FF4E13207
:10161C005A600E4B00229A600C4B0022DA600B4B86
:10162C0000221A61094B0C225A61084B00229A6164
:10163C00064B0022DA61054801F0B6FF0346002B89
:10164C0001D0FFF7F3FB00BF80BD00BFE406002014
:10165C000048004080B58CB000AF786007F11C03E7
:10166C0000221A605A609A60DA607B681B68574ADD
:10167C00934230D1564BDB69554A43F40033D36166
:10168C00534BDB6903F40033BB61BB69504B9B6963
:10169C004F4A43F0040393614D4B9B6903F00403E1
:1016AC007B617B690423FB6102233B620323BB62E6
:1016BC0007F11C031946474800F010FD0823FB6195
:1016CC0000233B6200237B6207F11C03194641484F
:1016DC0000F004FD76E07B681B683F4A934271D1B1
:1016EC003B4BDB693A4A43F48023D361384BDB69CB
:1016FC0003F480233B613B69354B9B69344A43F0CF
:10170C0010039361324B9B6903F01003FB60FB6881
:10171C004FF48063FB6102233B620323BB6207F13E
:10172C001C0319462D4800F0D9FC4FF40063FB61F3
:10173C0000233B6200237B6207F11C0319462748F8
:10174C0000F0CCFC264B5B68FB62FB6A23F0300399
:10175C00FB62FB6A43F0E063FB62FB6A43F010033D
:10176C00FB621F4AFB6A53601E4B1F4A1A601D4BDB
:10177C0000225A601B4B00229A601A4B8022DA60BE
:10178C00184B00221A61174B00225A61154B00228C
:10179C009A61144B0022DA61124800F001FA0346F8
:1017AC00002B01D0FFF742FB7B680E4A9A630D4A6F
:1017BC007B68536200220521272000F0C6F9272000
:1017CC0000F0DFF900BF3037BD4680BD004400405B
:1017DC000010024000080140004800400010014089
:1017EC0000000140A0060020300002400FB480B57C
:1017FC0082B000AF07F114033B603A6839690D48B9
:10180C0003F0DEFE0B48FEF79BFC0346FB80FA88D8
:10181C0064230849084801F014FF4FF4806200214A
:10182C00044803F0F1FC00BF0837BD46BDE880401A
:10183C0004B0704728070020281700200FB480B58B
:10184C0082B000AF07F114033B603A683969224853
:10185C0003F0B6FE0023FB8019E0FB880133BB804C
:10186C00FB881D4AD35C002B0ED109E0BA88BB88DB
:10187C00013B1949895C184AD154BB880133BB80A0
:10188C00BB88B3F5806FF1D3FB880133FB80FB88F9
:10189C00B3F5806FE1D31048FEF752FC0346FB8092
:1018AC00FA8864230C490D4801F0CBFE4FF480629A
:1018BC000021094803F0A8FC4FF48062002108487D
:1018CC0003F0A2FC074B00221A7000BF0837BD467C
:1018DC00BDE8804004B07047280F0020E4060020CB
:1018EC0028130020A50000200C480D490D4A0023A8
:1018FC0002E0D458C4500433C4188C42F9D30A4AB9
:10190C000A4C002301E013600432A242FBD3FFF720
:10191C00D5FD03F03BFCFFF7F1F970470000002008
:10192C0080000020C8720008800000208017002072
:10193C00FEE7000080B500AF084B1B68074A43F078
:10194C0010031360032000F0F5F80F20FFF794FC50
:10195C00FFF75AFC0023184680BD00BF0020024050
:10196C0080B400AF054B1B781A46054B1B6813441B
:10197C00034A136000BFBD4680BC704710000020B6
:10198C006C17002080B400AF024B1B681846BD4694
:10199C0080BC70476C17002080B584B000AF7860B5
:1019AC00FFF7F0FFB8607B68FB60FB68B3F1FF3FAB
:1019BC0005D00A4B1B781A46FB681344FB6000BF2A
:1019CC00FFF7E0FF0246BB68D31AFA689A42F7D8D1
:1019DC0000BF00BF1037BD4680BD00BF1000002007
:1019EC0080B485B000AF78607B6803F00703FB60C0
:1019FC000C4BDB68BB60BA684FF6FF031340BB604F
:101A0C00FB681A02BB68134343F0BF6343F4003313
:101A1C00BB60044ABB68D36000BF1437BD4680BCB2
:101A2C00704700BF00ED00E080B400AF044BDB68F2
:101A3C001B0A03F007031846BD4680BC704700BF65
:101A4C0000ED00E080B483B000AF0346FB7197F962
:101A5C000730002B0BDBFB7903F01F02064997F9CB
:101A6C0007305B09012000FA02F241F8232000BF85
:101A7C000C37BD4680BC704700E100E080B483B0F9
:101A8C0000AF03463960FB7197F90730002B0ADB76
:101A9C003B68DAB20C4997F907301201D2B20B4409
:101AAC0083F800230AE03B68DAB20849FB7903F0BB
:101ABC000F03043B1201D2B20B441A7600BF0C3751
:101ACC00BD4680BC704700BF00E100E000ED00E0C7
:101ADC0080B489B000AFF860B9607A60FB6803F03D
:101AEC000703FB61FB69C3F10703042B28BF042325
:101AFC00BB61FB690433062B02D9FB69033B00E095
:101B0C0000237B614FF0FF32BB6902FA03F3DA4327
:101B1C00BB681A407B699A404FF0FF317B6901FA30
:101B2C0003F3D9437B680B40134318462437BD4657
:101B3C0080BC704780B582B000AF78607868FFF7E2
:101B4C004FFF00BF0837BD4680BD80B586B000AFE3
:101B5C000346B9607A60FB7300237B61FFF764FF77
:101B6C0078617A68B9687869FFF7B2FF024697F92D
:101B7C000F3011461846FFF781FF00BF1837BD46DE
:101B8C0080BD80B582B000AF0346FB7197F907307A
:101B9C001846FFF757FF00BF0837BD4680BD000051
:101BAC0080B485B000AF78600023FB607B68002BAD
:101BBC0001D1012343E07B681B681A46224B134476
:101BCC00224AA2FB03231B099A007B681A647B68D8
:101BDC001F4ADA637B68022283F821207B681B682A
:101BEC001B68FB60FB6823F47F5323F03003FB601E
:101BFC007B685A687B689B681A437B68DB681A436E
:101C0C007B681B691A437B685B691A437B689B6919
:101C1C001A437B68DB691343FA681343FB607B68E8
:101C2C001B68FA681A607B6800229A637B68012241
:101C3C0083F821207B68002283F82020002318469B
:101C4C001437BD4680BC7047F8FFFDBFCDCCCCCC63
:101C5C000000024080B586B000AFF860B9607A60D1
:101C6C003B600023FB75FB6893F82030012B01D1FE
:101C7C0002234AE0FB68012283F82020FB6893F8DA
:101C8C002130012B3AD1FB68022283F82120FB681A
:101C9C0000229A63FB681B681A68FB681B6822F0B9
:101CAC0001021A603B687A68B968F86800F0E8F9D4
:101CBC00FB68DB6A002B08D0FB681B681A68FB68A2
:101CCC001B6842F00E021A600FE0FB681B681A6872
:101CDC00FB681B6822F004021A60FB681B681A6818
:101CEC00FB681B6842F00A021A60FB681B681A68E2
:101CFC00FB681B6842F001021A6005E0FB680022D9
:101D0C0083F820200223FB75FB7D18461837BD464F
:101D1C0080BD80B485B000AF78600023FB737B6816
:101D2C0093F82130022B08D07B6804229A637B68DD
:101D3C00002283F82020012320E07B681B681A68AE
:101D4C007B681B6822F00E021A607B681B681A689D
:101D5C007B681B6822F001021A607B681A6C7B6836
:101D6C00DB6B012101FA02F25A607B68012283F8D5
:101D7C0021207B68002283F82020FB7B1846143737
:101D8C00BD4680BC7047000080B584B000AF786061
:101D9C000023FB737B6893F82130022B05D07B6802
:101DAC0004229A630123FB7351E07B681B681A6859
:101DBC007B681B6822F00E021A607B681B681A682D
:101DCC007B681B6822F001021A607B681B68224A40
:101DDC00934229D07B681B68204A934222D07B68AF
:101DEC001B681F4A93421AD07B681B681D4A93429A
:101DFC0012D07B681B681C4A93420AD07B681B6814
:101E0C001A4A934202D14FF480130EE04FF08073C4
:101E1C000BE04FF4803308E04FF4805305E04FF4AF
:101E2C00807302E0102300E00123114A53607B68A9
:101E3C00012283F821207B68002283F820207B6814
:101E4C005B6B002B03D07B685B6B78689847FB7BE4
:101E5C0018461037BD4680BD080002401C000240E9
:101E6C003000024044000240580002406C00024026
:101E7C000000024080B584B000AF78607B68DB6BFB
:101E8C001B68FB607B681B681B68BB607B681B6CFA
:101E9C0004229A40FB681340002B4FD0BB6803F020
:101EAC000403002B4AD07B681B681B6803F02003DB
:101EBC00002B07D17B681B681A687B681B6822F0B3
:101ECC0004021A607B681B68664A934229D07B68BF
:101EDC001B68654A934222D07B681B68634A934215
:101EEC001AD07B681B68624A934212D07B681B68CD
:101EFC00604A93420AD07B681B685F4A934202D1C6
:101F0C004FF480030EE04FF080630BE04FF480231E
:101F1C0008E04FF4804305E04FF4806302E0402377
:101F2C0000E00423554A53607B68DB6A002B00F009
:101F3C0094807B68DB6A786898478EE07B681B6CC2
:101F4C0002229A40FB681340002B56D0BB6803F06A
:101F5C000203002B51D07B681B681B6803F0200325
:101F6C00002B0BD17B681B681A687B681B6822F0FE
:101F7C000A021A607B68012283F821207B681B68A7
:101F8C00384A934229D07B681B68374A934222D047
:101F9C007B681B68354A93421AD07B681B68344AAD
:101FAC00934212D07B681B68324A93420AD07B68FA
:101FBC001B68314A934202D14FF400130EE04FF0EC
:101FCC0000730BE04FF4003308E04FF4005305E0CE
:101FDC004FF4007302E0202300E00223274A5360F1
:101FEC007B68002283F820207B689B6A002B34D00E
:101FFC007B689B6A786898472FE07B681B6C08228B
:10200C009A40FB681340002B28D0BB6803F00803F0
:10201C00002B23D07B681B681A687B681B6822F036
:10202C000E021A607B681A6C7B68DB6B012101FA6B
:10203C0002F25A607B6801229A637B68012283F862
:10204C0021207B68002283F820207B681B6B002BEF
:10205C0004D07B681B6B7868984700BF00BF1037B3
:10206C00BD4680BD080002401C000240300002400A
:10207C0044000240580002406C0002400000024044
:10208C0080B485B000AFF860B9607A603B60FB68E3
:10209C001A6CFB68DB6B012101FA02F25A60FB68D7
:1020AC001B683A685A60FB685B68102B08D1FB68A8
:1020BC001B687A689A60FB681B68BA68DA6007E08C
:1020CC00FB681B68BA689A60FB681B687A68DA6000
:1020DC0000BF1437BD4680BC7047000080B48BB085
:1020EC0000AF7860396000237B6200233B6269E1BA
:1020FC0001227B6A02FA03F3FB613B681B68FA69F5
:10210C001340BB61BA69FB699A4240F058813B6845
:10211C005B689A4A93425ED0984A934275D8984A23
:10212C00934258D0964A93426FD8964A934252D0D3
:10213C00944A934269D8944A93424CD0924A93421F
:10214C0063D8924A934246D0904A93425DD8122B60
:10215C002AD8122B59D801A252F823F0E3210008F7
:10216C00BD210008CF210008112200081722000809
:10217C00172200081722000817220008172200084F
:10218C00172200081722000817220008172200083F
:10219C00172200081722000817220008172200082F
:1021AC00C5210008D9210008794A934213D02CE0AC
:1021BC003B68DB683B6229E03B68DB6804333B62CD
:1021CC0024E03B68DB6808333B621FE03B68DB685C
:1021DC000C333B621AE03B689B68002B02D1042352
:1021EC003B6213E03B689B68012B05D108233B62E3
:1021FC007B68FA691A6109E008233B627B68FA691B
:10220C005A6103E000233B6200E000BFBB69FF2B77
:10221C0001D87B6801E07B6804337B61BB69FF2BD1
:10222C0002D87B6A9B0002E07B6A083B9B003B6107
:10223C007B691A680F213B6901FA03F3DB431A40EF
:10224C00396A3B6901FA03F31A437B691A603B68EC
:10225C005B6803F08053002B00F0B1804D4B9B6901
:10226C004C4A43F0010393614A4B9B6903F0010311
:10227C00BB60BB68484A7B6A9B08023352F8233028
:10228C00FB607B6A03F003039B000F2202FA03F34B
:10229C00DB43FA681340FB607B68404A934213D0DF
:1022AC007B683F4A93420DD07B683E4A934207D0ED
:1022BC007B683D4A934201D1032306E0042304E0EA
:1022CC00022302E0012300E000237A6A02F00302F9
:1022DC0092009340FA681343FB602F497B6A9B087A
:1022EC000233FA6841F823203B685B6803F48033BF
:1022FC00002B06D02D4B1A682C49BB6913430B607D
:10230C0006E02A4B1A68BB69DB43284913400B6073
:10231C003B685B6803F40033002B06D0234B5A68F0
:10232C002249BB6913434B6006E0204B5A68BB69DA
:10233C00DB431E4913404B603B685B6803F480131E
:10234C00002B06D0194B9A681849BB6913438B6054
:10235C0006E0164B9A68BB69DB43144913408B604B
:10236C003B685B6803F40013002B21D00F4BDA6839
:10237C000E49BB691343CB6021E000BF0000321053
:10238C00000031100000221000002110000012107B
:10239C000000111000100240000001400008014034
:1023AC00000C0140001001400014014000040140E9
:1023BC000B4BDA68BB69DB4309491340CB607B6A82
:1023CC0001337B623B681A687B6A22FA03F3002BA9
:1023DC007FF48EAE00BF00BF2C37BD4680BC70476B
:1023EC000004014080B483B000AF78600B467B8062
:1023FC0013467B707B78002B03D07A887B681A613C
:10240C0003E07B881A047B681A6100BF0C37BD4659
:10241C0080BC704780B586B000AF78607B68002BBD
:10242C0001D101236CE27B681B6803F00103002BD4
:10243C0000F08780924B5B6803F00C03042B0CD0EC
:10244C008F4B5B6803F00C03082B12D18C4B5B6831
:10245C0003F48033B3F5803F0BD1894B1B6803F435
:10246C000033002B6CD07B685B68002B68D1012398
:10247C0046E27B685B68B3F5803F06D1804B1B68F6
:10248C007F4A43F4803313602EE07B685B68002B3B
:10249C000CD17B4B1B687A4A23F480331360784B46
:1024AC001B68774A23F4802313601DE07B685B680C
:1024BC00B3F5A02F0CD1724B1B68714A43F48023E7
:1024CC0013606F4B1B686E4A43F4803313600BE050
:1024DC006B4B1B686A4A23F480331360684B1B6890
:1024EC00674A23F4802313607B685B68002B13D04E
:1024FC00FFF748FA386108E0FFF744FA02463B69F7
:10250C00D31A642B01D90323FAE15D4B1B6803F446
:10251C000033002BF0D014E0FFF734FA386108E0F8
:10252C00FFF730FA02463B69D31A642B01D9032317
:10253C00E6E1534B1B6803F40033002BF0D100E0B1
:10254C0000BF7B681B6803F00203002B63D04C4B6D
:10255C005B6803F00C03002B0BD0494B5B6803F05A
:10256C000C03082B1CD1464B5B6803F48033002B07
:10257C0016D1434B1B6803F00203002B05D07B687C
:10258C001B69012B01D00123BAE13D4B1B6823F0E1
:10259C00F8027B685B69DB00394913430B603AE056
:1025AC007B681B69002B20D0364B01221A60FFF789
:1025BC00E9F9386108E0FFF7E5F902463B69D31AFF
:1025CC00022B01D903239BE12D4B1B6803F0020363
:1025DC00002BF0D02A4B1B6823F0F8027B685B6958
:1025EC00DB00274913430B6015E0264B00221A60D1
:1025FC00FFF7C8F9386108E0FFF7C4F902463B69F8
:10260C00D31A022B01D903237AE11D4B1B6803F06B
:10261C000203002BF0D17B681B6803F00803002B2E
:10262C003AD07B689B69002B19D0174B01221A609A
:10263C00FFF7A8F9386108E0FFF7A4F902463B69F7
:10264C00D31A022B01D903235AE10D4B5B6A03F019
:10265C000203002BF0D0012000F00AFB1CE00A4B17
:10266C0000221A60FFF78EF938610FE0FFF78AF944
:10267C0002463B69D31A022B08D9032340E100BF61
:10268C000010024000004242800442429E4B5B6AB2
:10269C0003F00203002BE9D17B681B6803F00403F1
:1026AC00002B00F0A6800023FB75974BDB6903F031
:1026BC008053002B0DD1944BDB69934A43F080532C
:1026CC00D361914BDB6903F08053BB60BB68012382
:1026DC00FB758E4B1B6803F48073002B18D18B4B4E
:1026EC001B688A4A43F480731360FFF74BF9386117
:1026FC0008E0FFF747F902463B69D31A642B01D96E
:10270C000323FDE0814B1B6803F48073002BF0D096
:10271C007B68DB68012B06D17B4B1B6A7A4A43F042
:10272C00010313622DE07B68DB68002B0CD1764B28
:10273C001B6A754A23F001031362734B1B6A724ABE
:10274C0023F0040313621CE07B68DB68052B0CD1BF
:10275C006D4B1B6A6C4A43F0040313626A4B1B6A91
:10276C00694A43F0010313620BE0674B1B6A664A2C
:10277C0023F001031362644B1B6A634A23F00403C6
:10278C0013627B68DB68002B15D0FFF7FBF8386110
:10279C000AE0FFF7F7F802463B69D31A41F2883298
:1027AC00934201D90323ABE0574B1B6A03F002039E
:1027BC00002BEED014E0FFF7E5F838610AE0FFF7E4
:1027CC00E1F802463B69D31A41F28832934201D9AF
:1027DC00032395E04C4B1B6A03F00203002BEED154
:1027EC00FB7D012B05D1484BDB69474A23F0805315
:1027FC00D3617B68DB69002B00F08180424B5B6806
:10280C0003F00C03082B61D07B68DB69022B46D1EB
:10281C003F4B00221A60FFF7B5F8386108E0FFF76C
:10282C00B1F802463B69D31A022B01D9032367E0A6
:10283C00354B1B6803F00073002BF0D17B681B6ACF
:10284C00B3F5803F08D1304B5B6823F400327B68D2
:10285C009B682D4913434B602B4B5B6823F474121C
:10286C007B68196A7B685B6A0B43274913434B608F
:10287C00274B01221A60FFF785F8386108E0FFF753
:10288C0081F802463B69D31A022B01D9032337E0A6
:10289C001D4B1B6803F00073002BF0D02FE01C4B7A
:1028AC0000221A60FFF76EF8386108E0FFF76AF84B
:1028BC0002463B69D31A022B01D9032320E0124BA9
:1028CC001B6803F00073002BF0D118E07B68DB6908
:1028DC00012B01D1012313E00B4B5B68FB60FB6800
:1028EC0003F480327B681B6A9A4206D1FB6803F4BE
:1028FC0070127B685B6A9A4201D0012300E00023CE
:10290C0018461837BD4680BD0010024000700040CC
:10291C006000424280B584B000AF786039607B685B
:10292C00002B01D10123D0E06A4B1B6803F0070395
:10293C003A689A4210D9674B1B6823F00702654925
:10294C003B6813430B60634B1B6803F007033A6847
:10295C009A4201D00123B8E07B681B6803F00203A4
:10296C00002B20D07B681B6803F00403002B05D0E0
:10297C00594B5B68584A43F4E06353607B681B68AF
:10298C0003F00803002B05D0534B5B68524A43F409
:10299C0060535360504B5B6823F0F0027B689B687C
:1029AC004D4913434B607B681B6803F00103002BFC
:1029BC0040D07B685B68012B07D1474B1B6803F445
:1029CC000033002B15D101237FE07B685B68022B61
:1029DC0007D1414B1B6803F00073002B09D1012375
:1029EC0073E03D4B1B6803F00203002B01D1012364
:1029FC006BE0394B5B6823F003027B685B683649FC
:102A0C0013434B60FEF7BEFFF8600AE0FEF7BAFF17
:102A1C000246FB68D31A41F28832934201D9032350
:102A2C0053E02D4B5B6803F00C027B685B689B00EA
:102A3C009A42EBD1274B1B6803F007033A689A4282
:102A4C0010D2244B1B6823F0070222493B68134326
:102A5C000B60204B1B6803F007033A689A4201D0C5
:102A6C00012332E07B681B6803F00403002B08D0C1
:102A7C00194B5B6823F4E0627B68DB6816491343EF
:102A8C004B607B681B6803F00803002B09D0124BCA
:102A9C005B6823F460527B681B69DB000E491343AF
:102AAC004B6000F021F802460B4B5B681B0903F0EE
:102ABC000F030A49CB5C22FA03F3094A1360094B52
:102ACC001B681846FEF7D8FB002318461037BD4686
:102ADC0080BD00BF0020024000100240F4710008CD
:102AEC00080000200C00002090B48AB000AF2A4BE4
:102AFC003C1D0FCB84E80F0040F201233B800023E8
:102B0C00FB610023BB6100237B6200237B610023FC
:102B1C003B62224B5B68FB61FB6903F00C03042BEB
:102B2C0002D0082B03D02DE01D4B3B622DE0FB693E
:102B3C009B0C03F00F0307F12802134413F8243CF9
:102B4C007B61FB6903F48033002B13D0134B5B6860
:102B5C005B0C03F0010307F12802134413F8283C23
:102B6C00BB617B690E4A02FB03F2BB69B2FBF3F358
:102B7C007B6204E07B690B4A02FB03F37B627B6A9A
:102B8C003B6202E0084B3B6200BF3B6A18462837A9
:102B9C00BD4690BC704700BFD471000800100240C5
:102BAC00001BB70000093D0000127A0080B400AF92
:102BBC00024B1B681846BD4680BC704708000020BD
:102BCC0080B500AFFFF7F2FF0246054B5B681B0AAE
:102BDC0003F007030349CB5C22FA03F3184680BDCC
:102BEC00001002400472000880B500AFFFF7DEFF52
:102BFC000246054B5B68DB0A03F007030349CB5C19
:102C0C0022FA03F3184680BD00100240047200083B
:102C1C0080B483B000AF786039607B680F221A6093
:102C2C00114B5B6803F003027B685A600E4B5B68C8
:102C3C0003F0F0027B689A600B4B5B6803F4E06274
:102C4C007B68DA60084B5B68DB0803F4E0627B6846
:102C5C001A61064B1B6803F007023B681A6000BF41
:102C6C000C37BD4680BC704700100240002002406B
:102C7C0080B485B000AF78600A4B1B680A4AA2FB8F
:102C8C0003235B0A7A6802FB03F3FB6000BFFB685B
:102C9C005A1EFA60002BF9D100BF00BF1437BD4695
:102CAC0080BC704708000020D34D621080B582B004
:102CBC0000AF78607B68002B01D1012376E07B6844
:102CCC005B6A002B08D17B685B68B3F5827F09D007
:102CDC007B680022DA6105E07B6800221A617B6860
:102CEC0000225A617B6800229A627B6893F851300B
:102CFC00DBB2002B06D17B68002283F85020786869
:102D0C00FEF7FAF97B68022283F851207B681B6876
:102D1C001A687B681B6822F040021A607B685B684B
:102D2C0003F482727B689B6803F404431A437B6848
:102D3C00DB6803F400631A437B681B6903F002032E
:102D4C001A437B685B6903F001031A437B689B6938
:102D5C0003F400731A437B68DB6903F038031A43EE
:102D6C007B681B6A03F0800342EA03017B689B6A61
:102D7C0003F400527B681B680A431A607B689B69EA
:102D8C001A0C7B681B6802F004025A607B681B6893
:102D9C00DA697B681B6822F40062DA617B680022C6
:102DAC005A657B68012283F85120002318460837A6
:102DBC00BD4680BD80B582B000AF78607B68002BCB
:102DCC0001D1012341E07B6893F83D30DBB2002B4D
:102DDC0006D17B68002283F83C207868FEF7C2FBA2
:102DEC007B68022283F83D207B681A687B68043379
:102DFC001946104600F070FA7B68012283F84620D1
:102E0C007B68012283F83E207B68012283F83F20F7
:102E1C007B68012283F840207B68012283F84120E3
:102E2C007B68012283F842207B68012283F84320CF
:102E3C007B68012283F844207B68012283F84520BB
:102E4C007B68012283F83D20002318460837BD46D5
:102E5C0080BD000080B485B000AF78607B6893F8CB
:102E6C003D30DBB2012B01D001233AE07B6802221A
:102E7C0083F83D207B681B68DA687B681B6842F02E
:102E8C000102DA607B681B68184A93420ED07B689B
:102E9C001B68B3F1804F09D07B681B68144A9342BE
:102EAC0004D07B681B68134A934211D17B681B6862
:102EBC009B6803F00703FB60FB68062B10D07B6854
:102ECC001B681A687B681B6842F001021A6007E0F5
:102EDC007B681B681A687B681B6842F001021A60E9
:102EEC00002318461437BD4680BC7047002C0140A7
:102EFC00000400400008004080B582B000AF78604C
:102F0C007B681B681B6903F00203022B22D17B68D0
:102F1C001B68DB6803F00203022B1BD17B681B6868
:102F2C006FF002021A617B6801221A777B681B68BA
:102F3C009B6903F00303002B03D0786800F0B1F910
:102F4C0005E0786800F0A4F9786800F0B3F97B68C4
:102F5C0000221A777B681B681B6903F00403042B9F
:102F6C0022D17B681B68DB6803F00403042B1BD1A4
:102F7C007B681B686FF004021A617B6802221A7767
:102F8C007B681B689B6903F44073002B03D0786843
:102F9C0000F087F905E0786800F07AF9786800F0BD
:102FAC0089F97B6800221A777B681B681B6903F020
:102FBC000803082B22D17B681B68DB6803F008032D
:102FCC00082B1BD17B681B686FF008021A617B68A9
:102FDC0004221A777B681B68DB6903F00303002B60
:102FEC0003D0786800F05DF905E0786800F050F9DE
:102FFC00786800F05FF97B6800221A777B681B68A1
:10300C001B6903F01003102B22D17B681B68DB6853
:10301C0003F01003102B1BD17B681B686FF01002A0
:10302C001A617B6808221A777B681B68DB6903F4DA
:10303C004073002B03D0786800F033F905E0786812
:10304C0000F026F9786800F035F97B6800221A77D1
:10305C007B681B681B6903F00103012B0ED17B6895
:10306C001B68DB6803F00103012B07D17B681B682D
:10307C006FF001021A617868FDF7C6FE7B681B6869
:10308C001B6903F08003802B0ED17B681B68DB6807
:10309C0003F08003802B07D17B681B686FF08002E4
:1030AC001A61786800F077FA7B681B681B6903F07B
:1030BC004003402B0ED17B681B68DB6803F0400398
:1030CC00402B07D17B681B686FF040021A6178684F
:1030DC0000F0F9F87B681B681B6903F02003202BB8
:1030EC000ED17B681B68DB6803F02003202B07D113
:1030FC007B681B686FF020021A61786800F042FA56
:10310C0000BF0837BD4680BD80B584B000AF786085
:10311C0039607B6893F83C30012B01D10223B3E07A
:10312C007B68012283F83C207B68022283F83D20D7
:10313C007B681B689B68FB60FB6823F07703FB6074
:10314C00FB6823F47F43FB607B681B68FA689A601A
:10315C003B681B68B3F5005F3ED0B3F5005F00F22F
:10316C008780B3F5805F00F08580B3F5805F7FD8F2
:10317C00702B1AD0702B7BD8602B50D0602B77D84B
:10318C00502B3CD0502B73D8402B58D0402B6FD8A1
:10319C00302B64D0302B6BD8202B60D0202B67D8F1
:1031AC00002B5CD0102B5AD062E07B6818683B680F
:1031BC0099683B685A683B68DB6800F066F97B6885
:1031CC001B689B68FB60FB6843F07703FB607B68C4
:1031DC001B68FA689A604EE07B6818683B689968CF
:1031EC003B685A683B68DB6800F04FF97B681B68EA
:1031FC009A687B681B6842F480429A603BE07B686B
:10320C0018683B6859683B68DB681A4600F0C6F8DA
:10321C007B681B685021184600F01DF92BE07B6879
:10322C0018683B6859683B68DB681A4600F0E4F89C
:10323C007B681B686021184600F00DF91BE07B6869
:10324C0018683B6859683B68DB681A4600F0A6F8BA
:10325C007B681B684021184600F0FDF80BE07B688A
:10326C001A683B681B681946104600F0F4F802E037
:10327C0000BF00E000BF7B68012283F83D207B6823
:10328C00002283F83C20002318461037BD4680BD31
:10329C0080B483B000AF786000BF0C37BD4680BCF3
:1032AC00704780B483B000AF786000BF0C37BD4668
:1032BC0080BC704780B483B000AF786000BF0C371F
:1032CC00BD4680BC704780B483B000AF786000BF4F
:1032DC000C37BD4680BC704780B485B000AF7860B9
:1032EC0039607B681B68FB607B68294A93420BD072
:1032FC007B68B3F1804F07D07B68264A934203D09A
:10330C007B68254A934208D1FB6823F07003FB606D
:10331C003B685B68FA681343FB607B681C4A93420A
:10332C000BD07B68B3F1804F07D07B68194A93426E
:10333C0003D07B68184A934208D1FB6823F440738E
:10334C00FB603B68DB68FA681343FB60FB6823F0A7
:10335C0080023B685B691343FB607B68FA681A6008
:10336C003B689A687B68DA623B681A687B689A6289
:10337C007B68074A934203D13B681A697B681A63DE
:10338C007B6801225A6100BF1437BD4680BC704770
:10339C00002C0140000400400008004080B487B0BD
:1033AC0000AFF860B9607A60FB681B6A7B61FB68F0
:1033BC001B6A23F00102FB681A62FB689B693B6184
:1033CC003B6923F0F0033B617B681B013A691343B3
:1033DC003B617B6923F00A037B617A69BB68134309
:1033EC007B61FB683A699A61FB687A691A6200BF73
:1033FC001C37BD4680BC704780B487B000AFF86006
:10340C00B9607A60FB681B6A23F01002FB681A62D1
:10341C00FB689B697B61FB681B6A3B617B6923F4DE
:10342C0070437B617B681B037A6913437B613B6947
:10343C0023F0A0033B61BB681B013A6913433B615A
:10344C00FB687A699A61FB683A691A6200BF1C379B
:10345C00BD4680BC704780B485B000AF78603960E1
:10346C007B689B68FB60FB6823F07003FB603A6829
:10347C00FB68134343F00703FB607B68FA689A60B0
:10348C0000BF1437BD4680BC704780B487B000AF16
:10349C00F860B9607A603B60FB689B687B617B6914
:1034AC0023F47F437B613B681A027B681A43BB6839
:1034BC0013437A6913437B61FB687A699A6000BF96
:1034CC001C37BD4680BC704780B485B000AF7860B7
:1034DC0039607B6893F83C30012B01D1022346E024
:1034EC007B68012283F83C207B68022283F83D2014
:1034FC007B681B685B68FB607B681B689B68BB60B8
:10350C00FB6823F07003FB603B681B68FA6813438D
:10351C00FB607B681B68FA685A607B681B68164AFC
:10352C0093420ED07B681B68B3F1804F09D07B6847
:10353C001B68124A934204D07B681B68104A934262
:10354C000CD1BB6823F08003BB603B685B68BA6836
:10355C001343BB607B681B68BA689A607B68012266
:10356C0083F83D207B68002283F83C20002318461A
:10357C001437BD4680BC7047002C0140000400404D
:10358C000008004080B483B000AF786000BF0C37F7
:10359C00BD4680BC704780B483B000AF786000BF7C
:1035AC000C37BD4680BC704780B582B000AF7860E8
:1035BC007B68002B01D101233FE07B6893F83D3001
:1035CC00DBB2002B06D17B68002283F83C207868A4
:1035DC00FEF740F87B68242283F83D207B681B684B
:1035EC00DA687B681B6822F40052DA60786800F0B5
:1035FC00E3FD7B681B681A697B681B6822F49042A8
:10360C001A617B681B685A697B681B6822F02A0266
:10361C005A617B681B68DA687B681B6842F400524D
:10362C00DA607B6800221A647B68202283F83D20D4
:10363C007B68202283F83E20002318460837BD46BD
:10364C0080BD80B58AB002AFF860B9603B601346AC
:10365C00FB8000237B61FB6893F83D30DBB2202BB1
:10366C007CD1BB68002B02D0FB88002B01D101233D
:10367C0075E0FB6893F83C30012B01D102236EE01E
:10368C00FB68012283F83C20FB6800221A64FB686B
:10369C00212283F83D20FEF775F97861FB68FA88E2
:1036AC009A84FB68FA88DA84FB689B68B3F5805FC0
:1036BC0008D1FB681B69002B04D10023FB61BB689C
:1036CC00BB6103E0BB68FB610023BB61FB680022AC
:1036DC0083F83C202AE03B6800937B690022802120
:1036EC00F86800F054FB0346002B01D0032336E0AE
:1036FC00FB69002B0BD1BB691B881A46FB681B6846
:10370C00C2F308025A60BB690233BB6107E0FB6974
:10371C001A78FB681B685A60FB690133FB61FB6814
:10372C00DB8C9BB2013B9AB2FB68DA84FB68DB8CC6
:10373C009BB2002BCFD13B6800937B6900224021C8
:10374C00F86800F024FB0346002B01D0032306E0AD
:10375C00FB68202283F83D20002300E0022318465A
:10376C002037BD4680BD80B584B000AFF860B9602D
:10377C001346FB80FB6893F83E30DBB2202B1DD147
:10378C00BB68002B02D0FB88002B01D1012316E073
:10379C00FB6893F83C30012B01D102230FE0FB684E
:1037AC00012283F83C20FB6800221A63FB881A462E
:1037BC00B968F86800F036FB034600E002231846AF
:1037CC001037BD4680BD80B584B000AF7860002353
:1037DC00FB607B681B685B6903F08003002B14BFE4
:1037EC0001230023DBB2FB607B6893F83D30DBB236
:1037FC00212B16D1FB68002B13D07B681B685A69F0
:10380C007B681B6822F080025A617B685B6B002B23
:10381C0004D07B685B6B1846FEF77BFA786800F087
:10382C0065FB7B681B685B6903F04003002B14BFCE
:10383C0001230023DBB2FB607B6893F83E30DBB2E4
:10384C00222B16D1FB68002B13D07B681B685A699E
:10385C007B681B6822F040025A617B689B6B002BD3
:10386C0004D07B689B6B1846FEF753FA786800F01F
:10387C0052FB002318461037BD4680BD80B58AB078
:10388C0000AF78607B681B681B687B627B681B6879
:10389C00DB683B627B681B685B69FB610023BB6177
:1038AC0000237B617B6A03F00F03BB61BB69002BB8
:1038BC000DD17B6A03F02003002B08D03B6A03F088
:1038CC002003002B03D0786800F0CCFB7BE1BB69B4
:1038DC00002B00F0B180FB6903F00103002B05D134
:1038EC003B6A03F49073002B00F0A6807B6A03F014
:1038FC000103002B0AD03B6A03F48073002B05D024
:10390C007B681B6C43F001027B681A647B6A03F0D2
:10391C000403002B0AD0FB6903F00103002B05D034
:10392C007B681B6C43F002027B681A647B6A03F0B1
:10393C000203002B0AD0FB6903F00103002B05D016
:10394C007B681B6C43F004027B681A647B6A03F08F
:10395C000803002B0FD03B6A03F02003002B04D18B
:10396C00FB6903F00103002B05D07B681B6C43F053
:10397C0008027B681A647B681B6C002B00F01E81AC
:10398C007B6A03F02003002B07D03B6A03F0200373
:10399C00002B02D0786800F065FB7B681B685B69C4
:1039AC0003F04003002B14BF01230023DBB27B6127
:1039BC007B681B6C03F00803002B02D17B69002B86
:1039CC0031D0786800F0A7FA7B681B685B6903F05C
:1039DC004003002B23D07B681B685A697B681B68EB
:1039EC0022F040025A617B689B6B002B13D07B68E2
:1039FC009B6B764A5A637B689B6B1846FEF7C4F93F
:103A0C000346002B16D07B689B6B5B6B7A68926BC2
:103A1C00104698470EE0786800F0F5F80AE07868F0
:103A2C0000F0F1F806E0786800F0EDF87B68002211
:103A3C001A64C3E000BFC1E07B681B6B012B40F034
:103A4C00A1807B6A03F01003002B00F09B803B6A83
:103A5C0003F01003002B00F095800023FB607B68C3
:103A6C001B681B68FB607B681B685B68FB60FB6802
:103A7C007B681B685B6903F04003002B4ED07B68AE
:103A8C009B6B1B685B683B823B8A002B00F0988029
:103A9C007B689B8D3A8A9A4280F092807B683A8A46
:103AAC00DA857B689B6B9B69202B2BD07B681B6812
:103ABC00DA687B681B6822F48072DA607B681B68AA
:103ACC005A697B681B6822F001025A617B681B688B
:103ADC005A697B681B6822F040025A617B6820227D
:103AEC0083F83E207B6800221A637B681B68DA68C7
:103AFC007B681B6822F01002DA607B689B6B1846AF
:103B0C00FEF707F97B689A8D7B68DB8D9BB2D31A25
:103B1C009BB21946786800F07FF851E07B689A8D6B
:103B2C007B68DB8D9BB2D31A7B827B68DB8D9BB26F
:103B3C00002B47D07B8A002B44D07B681B68DA684B
:103B4C007B681B6822F49072DA607B681B685A6988
:103B5C007B681B6822F001025A617B68202283F883
:103B6C003E207B6800221A637B681B68DA687B68DE
:103B7C001B6822F01002DA607B8A1946786800F024
:103B8C004BF81FE07B6A03F08003002B08D03B6AE4
:103B9C0003F08003002B03D0786800F0FCF912E0EE
:103BAC007B6A03F04003002B0DD03B6A03F040030B
:103BBC00002B08D0786800F03DFA04E000BF02E06A
:103BCC0000BF00E000BF2837BD4680BD7B3F00082A
:103BDC0080B483B000AF786000BF0C37BD4680BCAA
:103BEC00704780B483B000AF786000BF0C37BD461F
:103BFC0080BC704780B483B000AF786000BF0C37D6
:103C0C00BD4680BC704780B483B000AF786000BF05
:103C1C000C37BD4680BC704780B483B000AF786071
:103C2C000B467B8000BF0C37BD4680BC704780B50F
:103C3C0084B000AF78607B685B6AFB607B681B6854
:103C4C001B6803F02003002B2AD1FB680022DA85C5
:103C5C00FB681B68DA68FB681B6822F48072DA6008
:103C6C00FB681B685A69FB681B6822F001025A61E9
:103C7C00FB681B685A69FB681B6822F040025A619A
:103C8C00FB68202283F83E20FB681B6B012B07D1BD
:103C9C00FB681B68DA68FB681B6822F01002DA60AC
:103CAC00FB681B6B012B06D1FB689B8D1946F868D2
:103CBC00FFF7B2FF02E0F868FFF793FF00BF103781
:103CCC00BD4680BD80B584B000AF78607B685B6A10
:103CDC00FB60FB681B6B012B08D1FB689B8D5B08A1
:103CEC009BB21946F868FFF797FF02E0F868FFF7F8
:103CFC0081FF00BF1037BD4680BD80B584B000AFDA
:103D0C0078600023FB607B685B6ABB60BB681B68E8
:103D1C005B6903F08003002B14BF01230023DBB28B
:103D2C00FB60BB6893F83D30DBB2212B08D1FB68FC
:103D3C00002B05D0BB680022DA84B86800F0D6F8F6
:103D4C00BB681B685B6903F04003002B14BF0123A5
:103D5C000023DBB2FB60BB6893F83E30DBB2222B56
:103D6C0008D1FB68002B05D0BB680022DA85B86847
:103D7C0000F0D1F8BB681B6C43F01002BB681A64EE
:103D8C00B868FFF740FF00BF1037BD4680BD80B557
:103D9C0084B000AFF860B9603B601346FB712CE057
:103DAC00BB69B3F1FF3F28D0BB69002B07D0FDF7EF
:103DBC00E9FD02463B68D31ABA699A421DD2FB68E8
:103DCC001B68DA68FB681B6822F4D072DA60FB6847
:103DDC001B685A69FB681B6822F001025A61FB6878
:103DEC00202283F83D20FB68202283F83E20FB68CC
:103DFC00002283F83C2003230FE0FB681B681A6841
:103E0C00BB681340BA689A420CBF01230023DBB293
:103E1C001A46FB799A42C3D0002318461037BD4688
:103E2C0080BD000080B586B000AFF860B960134665
:103E3C00FB80BA68FB689A62FB68FA889A85FB6813
:103E4C0000221A64FB68222283F83E20FB689B6BDD
:103E5C00234A9A62FB689B6B224ADA62FB689B6B73
:103E6C00214A1A63FB689B6B00225A6307F1080313
:103E7C007B61FB68986BFB681B68043319467B6994
:103E8C001A68FB88FDF7E6FE00233B61FB681B68A4
:103E9C001B683B61FB681B685B683B613B69FB68AB
:103EAC00002283F83C20FB681B68DA68FB681B68FF
:103EBC0042F48072DA60FB681B685A69FB681B6805
:103ECC0042F001025A61FB681B685A69FB681B6867
:103EDC0042F040025A61002318461837BD4680BD97
:103EEC003B3C0008D13C0008073D000880B483B07F
:103EFC0000AF78607B681B68DA687B681B6822F00F
:103F0C00C002DA607B68202283F83D2000BF0C37AA
:103F1C00BD4680BC704780B483B000AF78607B68CE
:103F2C001B68DA687B681B6822F49072DA607B6825
:103F3C001B685A697B681B6822F001025A617B6816
:103F4C001B6B012B07D17B681B68DA687B681B68CD
:103F5C0022F01002DA607B68202283F83E207B6816
:103F6C0000221A6300BF0C37BD4680BC704780B579
:103F7C0084B000AF78607B685B6AFB60FB680022F2
:103F8C00DA85FB680022DA84F868FFF73CFE00BF94
:103F9C001037BD4680BD80B485B000AF78607B68BB
:103FAC0093F83D30DBB2212B3ED17B689B68B3F597
:103FBC00805F14D17B681B69002B10D17B681B6A56
:103FCC00FB60FB681B881A467B681B68C2F30802FF
:103FDC005A607B681B6A9A1C7B681A6208E07B68D3
:103FEC001B6A591C7A6811621A787B681B685A60C4
:103FFC007B68DB8C9BB2013B9BB27A681946D184FF
:10400C00002B0FD17B681B68DA687B681B6822F079
:10401C008002DA607B681B68DA687B681B6842F098
:10402C004002DA60002300E0022318461437BD4634
:10403C0080BC704780B582B000AF78607B681B682D
:10404C00DA687B681B6822F04002DA607B68202209
:10405C0083F83D207868FFF7BBFD0023184608372E
:10406C00BD4680BD80B586B000AF78607B6893F8A4
:10407C003E30DBB2222B40F099807B689B68B3F515
:10408C00805F17D17B681B69002B13D100237B61E8
:10409C007B689B6A3B617B681B685B689BB2C3F364
:1040AC0008039AB23B691A807B689B6A9A1C7B68EE
:1040BC009A6226E07B689B6A7B6100233B617B688C
:1040CC009B68B3F5805F07D07B689B68002B0AD197
:1040DC007B681B69002B06D17B681B685B68DAB2B6
:1040EC007B691A7008E07B681B685B68DBB203F0C5
:1040FC007F03DAB27B691A707B689B6A5A1C7B68F7
:10410C009A627B68DB8D9BB2013B9BB27A68194645
:10411C00D185002B48D17B681B68DA687B681B68EB
:10412C0022F02002DA607B681B68DA687B681B6807
:10413C0022F48072DA607B681B685A697B681B68A2
:10414C0022F001025A617B68202283F83E207B68B2
:10415C001B6B012B23D17B6800221A637B681B68C5
:10416C00DA687B681B6822F01002DA607B681B68D7
:10417C001B6803F01003102B0AD10023FB607B6833
:10418C001B681B68FB607B681B685B68FB60FB68DB
:10419C007B689B8D19467868FFF73EFD02E07868D6
:1041AC00FFF71FFD002302E0002300E00223184666
:1041BC001837BD4680BD000080B584B000AF786074
:1041CC007B681B681B6923F440517B68DA687B6849
:1041DC001B680A431A617B689A687B681B691A43DF
:1041EC007B685B691343BB607B681B68DB6823F4EB
:1041FC00B05323F00C037A681268B9680B43D36090
:10420C007B681B685B6923F440717B689A697B68E7
:10421C001B680A435A617B681B682C4A934203D182
:10422C00FEF7E2FCF86002E0FEF7CAFCF860FA6800
:10423C0013469B0013449A001A447B685B689B00EE
:10424C00B2FBF3F3224AA2FB03235B091901FA68C0
:10425C0013469B0013449A001A447B685B689B00CE
:10426C00B2FBF3F21A4BA3FB02035B09642000FBC5
:10427C0003F3D31A1B013233154AA2FB03235B0948
:10428C0003F0F0031944FA6813469B0013449A0098
:10429C001A447B685B689B00B2FBF3F20C4BA3FBEC
:1042AC0002035B09642000FB03F3D31A1B013233B6
:1042BC00074AA2FB03235B0903F00F027B681B6810
:1042CC000A449A6000BF1037BD4680BD00380140DB
:1042DC001F85EB5190B585B000AF78600023FB6073
:1042EC007B681B7A032B02D10C23FB6005E07B68F7
:1042FC001B7A042B01D10A23FB607B680C3393E8F7
:10430C00070000F037FB03460233FA681344FB60E6
:10431C007B68DB7E002B13D07B68243393E807008B
:10432C0000F028FB03469C1C7B68303393E80700A5
:10433C0000F020FB034623440233FA681344FB606D
:10434C007B681B6C002B03D17B689B6C002B0AD009
:10435C007B68403393E8070000F00CFB0346023304
:10436C00FA681344FB607B68DB6C002B03D17B6821
:10437C005B6D002B0AD07B684C3393E8070000F090
:10438C00F9FA03460233FA681344FB60FB681846DB
:10439C001437BD4690BD000080B58AB000AFF86000
:1043AC00B9607A60FB68FB610023BB6100237B6111
:1043BC0000233B624FF0FF337B627868FFF78AFF84
:1043CC003862386A00F0DAF90246BB68934203DAC5
:1043DC006FF001037B62C2E000233B763B7E01223F
:1043EC0062F307133B763A7E07F11C03114618461D
:1043FC0000F037FAFB69396A184600F055F90246A5
:10440C00FB691344FB617B681B7A042B0CD107F10D
:10441C001C035549184600F060FA07F11C030421EF
:10442C00184600F01EFA0BE007F11C034F49184622
:10443C0000F053FA07F11C030321184600F011FA9F
:10444C0000233B757B689B7E03F00103DAB23B7D56
:10445C0062F341033B757B68DB7E002B14BF0123A9
:10446C000023DAB23B7D62F382033B753B7D03F0A4
:10447C000403DBB2002B13D07B6893F83D3003F0C0
:10448C000303DAB23B7D62F3C4033B757B6893F89C
:10449C003C3003F00103DAB23B7D62F345133B750C
:1044AC007B681B6C002B03D17B689B6C002B03D0AF
:1044BC003B7D43F080033B757B68DB6C002B03D1A9
:1044CC007B685B6D002B03D03B7D43F040033B7559
:1044DC003A7D07F11C031146184600F0C2F97B68BF
:1044EC001B8B1A4607F11C031146184600F0CDF938
:1044FC007B6807F11C000C330ECB00F00DFA7B68C7
:10450C00DB7E002B0DD07B6807F11C0024330ECB17
:10451C0000F002FA7B6807F11C0030330ECB00F080
:10452C00FBF93B7D23F07F03DBB2002B06D07B68CD
:10453C0007F11C0040330ECB00F0EEF93B7D03F08D
:10454C004003DBB2002B06D07B6807F11C004C3318
:10455C000ECB00F0E1F9FA69FB68D31A7B627B6A37
:10456C0018462837BD4680BDE4710008EC71000880
:10457C0080B58AB000AFF860B9607A603B60002308
:10458C00FB617B68BB6100233B6200237B620023E1
:10459C003B6107F11803184600F050F903463B77CE
:1045AC003B7F23F00F03DBB2202B2ED1BB6907F12D
:1045BC0014021146184600F02BF978627A6ABB692E
:1045CC001344BB61BB697A6913443B62BB693A6AA9
:1045DC00D31A012B1BDD07F11803184600F02EF936
:1045EC0003463B743B7CC3F30003DBB21A46FB6807
:1045FC001A7007F11803184600F020F903461A4602
:10460C00BB681A7001237B6202E000BF00E000BFB0
:10461C007B6A18462837BD4680BD80B588B000AF90
:10462C00F860B9601346FB710023BB614FF0FF3398
:10463C00FB61FB687B61BB68012B03DC6FF0010342
:10464C00FB611DE000233B76FB7903F00F03DAB22C
:10465C003B7E62F307133B763A7E07F11403114657
:10466C00184600F0FEF87B690021184600F01CF893
:10467C0002467B6913447B617A69FB68D31AFB6140
:10468C00FB6918462037BD4680BD80B582B000AFAF
:10469C00786039600E2239687868FFF7BEFF0346F0
:1046AC0018460837BD4680BD80B485B000AF786031
:1046BC0039600023FB603B685A4203F07F0302F031
:1046CC007F0258BF5342FB723B68002B00DA7F33EA
:1046DC00DB113B603B68002B03DDFB7A63F07F034F
:1046EC00FB72FB685A1CFA601A467B681344FA7A10
:1046FC001A703B68002BDEDCFB6818461437BD468D
:10470C0080BC704780B586B000AF786039600123FB
:10471C007B6100233B613B6800221A604FF0FF3342
:10472C00FB603B6901333B613B69042B03DD4FF0BC
:10473C00FF33FB601DE007F10B027B680121104683
:10474C009847F860FB68012B12D13B681A68FB7A1A
:10475C0003F07F03796901FB03F31A443B681A6089
:10476C007B69DB017B61FB7A5BB2002BD6DB00E063
:10477C0000BF3B6918461837BD4680BD80B483B076
:10478C0000AF78607B6801337B607B687F2B03DC38
:10479C007B6801337B6012E07B68B3F5804F03DAF2
:1047AC007B6802337B600AE07B68084A934203DC37
:1047BC007B6803337B6002E07B6804337B607B683F
:1047CC0018460C37BD4680BC704700BFFEFF1F006B
:1047DC0080B485B000AF786039600023FB600AE0DC
:1047EC000A4B1B685A1C09490A601A787B681A70B4
:1047FC00FB680133FB60FA683B689A42F0DB3B686C
:10480C0018461437BD4680BC704700BFA800002076
:10481C0080B582B000AF78603960064A7B6813605F
:10482C0039680548FFF76EFF034618460837BD4642
:10483C0080BD00BFA8000020DD47000880B485B013
:10484C0000AF78607B681B681B78FB737B681B6808
:10485C005A1C7B681A60FB7B18461437BD4680BC1B
:10486C00704780B483B000AF78600B46FB707B68F8
:10487C001B68FA781A707B681B685A1C7B681A6074
:10488C0000BF0C37BD4680BC704780B483B000AF0E
:10489C00786039603B68002B00DAFF331B121A4634
:1048AC007B681B68D2B21A707B681B685A1C7B68C9
:1048BC001A603B685A42DBB2D2B258BF53427A6894
:1048CC001268DBB213707B681B685A1C7B681A6019
:1048DC0000BF0C37BD4680BC704780B584B000AFBC
:1048EC00786039603868FBF72BFC0346FB60F9688D
:1048FC007868FFF7CAFF7B681B68FA683968184646
:10490C0000F074FC7B681A68FB681A447B681A60B8
:10491C0000BF1037BD4680BD80B584B000AFF860D5
:10492C00384680E80E007B68002B12DD7B68194648
:10493C00F868FFF7AAFFFB681B68B9687A68184625
:10494C0000F054FCFB681B687A681A44FB681A6018
:10495C000CE03B68002B05D03B681946F868FFF764
:10496C00BCFF03E00021F868FFF78FFF00BF103792
:10497C00BD4680BD80B586B000AF3B1D83E8070007
:10498C0000237B617B68002B06D07B681846FBF705
:10499C00D7FB03467B6101E0BB687B617B691846F2
:1049AC001837BD4680BD80B588B000AFF860B960DF
:1049BC007A604FF0FF33FB6100237B610023BB6106
:1049CC0000233B617B680121F86898470346012B63
:1049DC002FD10123BB6107F1100319467868FFF74B
:1049EC0091FEFB6801333A6911461846FFF75CFEED
:1049FC000246BB691344BB613A69BB691344BA688C
:104A0C009A4218DB3B69002B0AD0BB69FA681A443E
:104A1C0039697B681046984702463B699A420CD12B
:104A2C00FB681B783B753B7DC3F30313DBB2FB6167
:104A3C0004E000BF02E000BF00E000BFFB691846C5
:104A4C002037BD4680BD00000A4B10B504461868DF
:104A5C0018B183690BB900F0FBFA132C07D8064880
:104A6C0050F83420013202D000EBC40010BD0020FD
:104A7C00FCE700BF1C000020B8000020F8B5431C68
:104A8C00044609D100F086FA132605460027304665
:104A9C003946ABBE06462E602046F8BDF8B5044636
:104AAC0000F078FA13260546002730463946ABBE8F
:104ABC00064620462E60F8BD30B585B00624CDE9FB
:104ACC000101039201AD20462946ABBE04462046A7
:104ADC00FFF7D4FF05B030BD70B50E461546FFF795
:104AEC00B3FF044630B900F055FA092303604FF0C8
:104AFC00FF3070BD2A4631460068FFF7DDFF431CCE
:104B0C001FBF6368281A1B186360F2E7F7B50C46E1
:104B1C001646FFF799FF054640B900F03BFA09230A
:104B2C0003604FF0FF34204603B0F0BD022E03D9D2
:104B3C0000F030FA1623F3E7012E12D14368E41883
:104B4C00F6D42B680A266F46CDE900343046394638
:104B5C00ABBE06463046FFF791FF0028E1DB6C60E8
:104B6C00E1E7022EEDD103680C266F460093304628
:104B7C003946ABBE06463046FFF780FF431CD0D00B
:104B8C000444DEE7FFF7C2BF30B585B00524CDE99C
:104B9C000101039201AD20462946ABBE04462046D6
:104BAC00FFF76CFF05B030BD70B50E461546FFF72C
:104BBC004BFF044630B900F0EDF9092303604FF0C8
:104BCC00FF3070BD2A4631460068FFF7DDFF031E3B
:104BDC00F5DB6268E81A0244AB426260F1D1BDE8D1
:104BEC0070400020FFF75ABF37B50224019001AD89
:104BFC0020462946ABBE04462046FFF73FFF03B0D4
:104C0C0030BD000038B50546FFF71EFF044630B92D
:104C1C0000F0C0F9092303604FF0FF3038BD013DAF
:104C2C00012D09D8094B9A681B699A4204D14FF09F
:104C3C00FF3303600020F1E72068FFF7D5FF002861
:104C4C00ECD14FF0FF332360E8E700BFB800002041
:104C5C0070B50C46FFF7F8FE054630B900F09AF92E
:104C6C00092303604FF0FF3070BD63680C2643F4DA
:104C7C00005363604FF48063A36430462946ABBE97
:104C8C0005462846FFF7FAFE431C1CBF2061002096
:104C9C00EAE70B4610B5002104465822184600F0EE
:104CAC00B3FA01462046BDE81040FFF7D1BF38B536
:104CBC000D46044658220021284600F0A5FA20464D
:104CCC00002100F011F8431C04460BD06B682946F8
:104CDC0043F401436B60FFF7BBFF05462046FFF72B
:104CEC0091FF2C46204638BD2B4B2DE9F0438146D5
:104CFC000F4600251E4697B053F83540611C37D03F
:104D0C000135142DF8D100F045F918234FF0FF347C
:104D1C0003603DE040F20163C7F30044BA0748BFAB
:104D2C0044F002041F4218BF44F004043B0748BF80
:104D3C0024F00404484648BF44F00804CDF8009021
:104D4C00FBF7FEF9CDE90140012420464146ABBEFC
:104D5C000446002C07DB002346F8354006EBC5065D
:104D6C002C46736014E02046FFF798FE04460FE0D3
:104D7C0007F42063B3F5206FE846CBD14146484693
:104D8C00FFF795FF0130C5D000F004F91123036043
:104D9C00204617B0BDE8F083B80000202DE9F7439A
:104DAC0006460F462A4800211546FFF79DFF04468C
:104DBC002A460021304600F027FA631C16D0204604
:104DCC00FFF742FE4FF00C08814640464946ABBE09
:104DDC0080464046FFF752FE032802DDC31EAB425D
:104DEC0008DC2046FFF70EFF4FF0FF34204603B0DF
:104DFC00BDE8F083042220460DEB0201FFF76CFEA8
:104E0C000328EEDD9DF80430532BEAD19DF80530D4
:104E1C00482BE6D19DF80630462BE2D19DF80730A1
:104E2C00422BDED1012239462046FFF76FFE0028C7
:104E3C00D7DB2A4631462046FFF74EFE0546204674
:104E4C00FFF7E0FE2846FFF719FE0446CEE700BF49
:104E5C000C72000837B500210122094D094C01A83C
:104E6C0029602260FFF79AFF002807DD9DF80430C7
:104E7C0003F0010203F002032A60236003B030BD8B
:104E8C00140000201800002010B5044C2268002AE1
:104E9C0001DAFFF7DFFF206810BD00BF180000200B
:104EAC002DE9F04F03230024DFF8AC9085B0CDF84A
:104EBC0004900DF104080393012502942846414601
:104ECC00ABBE0546204A23464FF0FF3114461F4E19
:104EDC00356042F833100133142BFAD1FFF7D4FFAD
:104EEC001B4DD0B14FF0030A0423CDF804900127D9
:104EFC00CDF80CA0029338464146ABBE8346154B09
:104F0C00CDF80490C3F800B00823CDF80CA00293A0
:104F1C0038464146ABBE07462F602B68013302BFB3
:104F2C000C4B1B682B603368002623606660FFF710
:104F3C00ABFF30B1074B1B68C4E902362B68C4E9E0
:104F4C00043605B0BDE8F08FB8000020B00000209A
:104F5C00AC000020B40000202272000870B5FFF7EE
:104F6C0073FD0925044620B900F014F805602046AD
:104F7C0070BD28462146ABBE0446012CF7D000F08C
:104F8C0009F800240546132630462146ABBE0646DA
:104F9C002E60ECE7014B1868704700BF1C00002026
:104FAC00002310B50446C0E90033C0E90433836024
:104FBC0081814366C2818361194608225C3000F00E
:104FCC0023F9054B24626362044BA362044BE36236
:104FDC00044B236310BD00BFED5400080F550008AF
:104FEC00475500086B550008014900F0AFB800BFE9
:104FFC00B158000870B568254A1E55430E4605F198
:10500C00740100F055F9044640B10021C0E90016C6
:10501C000C30A06005F1680200F0F6F8204670BD77
:10502C00014800F0D8B800BF78170020014800F004
:10503C00D3B800BF78170020014800F0CCB800BFEF
:10504C0073170020014800F0C7B800BF7317002089
:10505C0010B50446FFF7F0FFA3691BB1BDE8104083
:10506C00FFF7F0BFC4E912332365134B134A1B68D7
:10507C00A262A34208BF0123204608BFA36100F02F
:10508C001FF86060204600F01BF8A060204600F07E
:10509C0017F800220421E0606068FFF781FF01220D
:1050AC000921A068FFF77CFF02221221E068FFF7BC
:1050BC0077FF0123A361D1E788720008F54F000840
:1050CC00F8B50746FFF7ACFF1E4B1E68B36913B962
:1050DC003046FFF7BDFF4836D6E90134013B03D516
:1050EC0033680BB33668F7E7B4F90C50D5B9164BE7
:1050FC0004F15800E360656600F06CF8FFF796FF6A
:10510C0008222946C4E90155C4E904552560A56166
:10511C0004F15C0000F078F8C4E90D55C4E91255AF
:10512C002046F8BD6834D9E704213846FFF762FF02
:10513C00044630600028D5D1FFF778FF0C233B6084
:10514C00EEE700BF887200080100FFFF2DE9F8436D
:10515C0006468846002700F14804D4E90195B9F1C8
:10516C00010905D52468002CF7D13846BDE8F88331
:10517C00AB89012B07D9B5F90E30013303D0294681
:10518C003046C04707436835E9E7000070B5002694
:10519C000C4D0D4C641BA410A64209D101F014F95E
:1051AC0000260A4D0A4C641BA410A64205D170BD02
:1051BC0055F8043B98470136EEE755F8043B984701
:1051CC000136F2E7C0720008C0720008C072000815
:1051DC00C47200087047704770470000024B0146CC
:1051EC00186800F065B800BF1C0000200A4491420A
:1051FC0000F1FF3300D1704710B511F8014B91420B
:10520C0003F8014FF9D110BD03460244934200D17B
:10521C00704703F8011BF9E738B50546002943D060
:10522C0051F8043C0C1F002BB8BFE41800F0ECFB49
:10523C001E4A1368104633B9636014602846BDE8F3
:10524C00384000F0E7BBA3420AD9216862189342A8
:10525C0001BF1A685B685218226063600460EDE756
:10526C001A465B680BB1A342FAD911685018A042D8
:10527C000BD120680144501883421160DED11868AC
:10528C005B68014411605360D8E702D90C232B6092
:10529C00D4E7206821188B4201BF19685B68091894
:1052AC00216063605460C9E738BD00BF580100201D
:1052BC00F8B5CD1C25F0030508350C2D38BF0C2591
:1052CC00002D064601DBA94203D90C2333600020D4
:1052DC00F8BD00F099FB21490A6814469CB9204F8F
:1052EC003B6823B92146304600F0CAF8386029469D
:1052FC00304600F0C5F8431C23D10C2330463360F4
:10530C0000F088FBE3E723685B1B17D40B2B03D956
:10531C0023601C44256004E06368A2420CBF0B6050
:10532C005360304600F076FB04F10B00231D20F097
:10533C000700C21ACCD01B1AA350C9E722466468D6
:10534C00CCE7C41C24F00304A042E3D0211A30465D
:10535C0000F096F80130DDD1CFE700BF58010020F6
:10536C005C0100200FB40A4B13B51C6824B1A3696F
:10537C0013B92046FFF76CFE05AB2046049AA168D2
:10538C00019300F0F7FC02B0BDE8104004B0704788
:10539C001C00002070B50E46054618B183690BB988
:1053AC00FFF756FEAB69AC6813B92846FFF750FE01
:1053BC002C4B9C4220D16C68636EDB0705D4A3890F
:1053CC00980502D4A06DFFF706FFA38919071DD518
:1053DC002369DBB1013EA36816F8011F013BA360F2
:1053EC0039BB002B38DA22460A21284600F0F2F8A5
:1053FC00013011D00A2511E01B4B9C4201D1AC6845
:10540C00DAE71A4B9C4208BFEC68D5E721462846E0
:10541C0000F044F90028DDD04FF0FF35636EDA0759
:10542C0005D4A3899B0502D4A06DFFF7D5FE2846B1
:10543C0070BD002B04DAA2699A4206DC0A2904D05A
:10544C0023685A1C22601970C5E72246284600F0D2
:10545C00C1F80130BFD1DFE70A2523685A1C22604E
:10546C001D70DBE74872000868720008287200089B
:10547C00024B01461868FFF78DBF00BF1C000020CF
:10548C0038B50023054D044608462B60FBF7E0FFBA
:10549C00431C02D12B6803B1236038BD7C1700205C
:1054AC000EB46FF0004100B59CB01DAB029006909D
:1054BC00079104910848094953F8042B0591006899
:1054CC0002A9019300F02EFB0022029B1A701CB063
:1054DC005DF804EB03B070471C0000200802FFFFCE
:1054EC0010B50C46B1F90E1000F00AFF0028ABBF46
:1054FC00636DA3891B1823F48053ACBF6365A38130
:10550C0010BD2DE9F0411F468B890546DB050C4685
:10551C00164605D502230022B1F90E1000F0FEF953
:10552C00A389324623F48053A38128463B46B4F921
:10553C000E10BDE8F04100F09FB810B50C46B1F963
:10554C000E1000F0EBF9431CA38915BF606523F422
:10555C00805343F48053A38118BFA38110BDB1F9CC
:10556C000E1000F009B9F0B50C7864B103461A7846
:10557C0018465E1C0AB9104605E0944208D10D4647
:10558C0015F8012F02B9F0BD13F8017F9742F7D03F
:10559C003346ECE700B59BB0009104916FF00041ED
:1055AC000591029105490391694600F0BBFA00226E
:1055BC00009B1A701BB05DF804FB00BF0802FFFFD4
:1055CC0013460A46014602480068FFF7E3BF00BFD6
:1055DC001C000020F8B50E461446054618B1836928
:1055EC000BB9FFF735FD214B9C422BD16C68A3699D
:1055FC00A360A3891A072FD523696BB3236920688D
:10560C00F6B2C01A63693746834204DC2146284649
:10561C0000F048F930BBA3680130013BA36023685C
:10562C005A1C22601E706369834204D0A389DB0775
:10563C0006D50A2E04D12146284600F033F988B944
:10564C003846F8BD0A4B9C4201D1AC68CFE7094BF8
:10565C009C4208BFEC68CAE72146284600F01EF8B9
:10566C000028CBD04FF0FF37EAE700BF48720008A4
:10567C00687200082872000838B5044608461146BE
:10568C000022054D2A601A46FFF78EFA431C02D100
:10569C002B6803B1236038BD7C170020324B70B5EA
:1056AC001D6806460C4625B1AB6913B92846FFF7B1
:1056BC00CFFC2E4B9C420FD16C68A389B4F90C2003
:1056CC0019072CD4DD0611D40923336042F04003B2
:1056DC004FF0FF30A3813EE0254B9C4201D1AC68DA
:1056EC00EBE7244B9C4208BFEC68E6E7580712D561
:1056FC00616B41B104F14403994202D03046FFF78B
:10570C008BFD00236363A38923F02403A38100236F
:10571C00636023692360A38943F00803A381236991
:10572C004BB9A38903F42073B3F5007F03D0214652
:10573C00304600F029F9A089B4F90C2010F00103CF
:10574C000AD00023A36063695B42A361236943B958
:10575C0010F08000BAD170BD810758BF6369A36097
:10576C00F4E70020F7E700BF1C0000204872000897
:10577C00687200082872000838B50023054D0446ED
:10578C0008462B60FFF73EFA431C02D12B6803B18D
:10579C00236038BD7C1700208A892DE9F04105462D
:1057AC0010070C4658D44B68002B05DC0B6C002BF7
:1057BC0002DC0020BDE8F081E66A002EF9D000235F
:1057CC0012F480522F682B6032D0606DA3895A0777
:1057DC0005D56368C01A636B0BB1236CC01A002328
:1057EC000246E66A2846216AB047431CA38906D1C3
:1057FC0029681D292CD82A4ACA40D60728D5002248
:10580C0062602269D904226004D5421C01D12B6844
:10581C0003B96065616B2F600029CAD004F14403A1
:10582C00994202D02846FFF7F7FC00206063C1E7DD
:10583C00216A01232846B047411CC7D12B68002B95
:10584C00C4D01D2B01D0162B01D12F60B1E7A38939
:10585C0043F04003A381ADE70F69002FA9D0930754
:10586C0018BF00230E6808BF4B69A6EB07080F6032
:10587C008B60B8F1000F9CDD43463A462846216AFE
:10588C00A66AB047002806DCA3894FF0FF3043F02E
:10589C004003A3818EE70744A8EB0008E9E700BFAB
:1058AC000100402038B50B6905460C4613B900259C
:1058BC00284638BD18B183690BB9FFF7C9FB144BE7
:1058CC009C421BD16C68B4F90C30002BEFD0626E8B
:1058DC00D00704D4990502D4A06DFFF77CFC2846B0
:1058EC002146FFF759FF636E0546DA07E0D4A3891A
:1058FC009B05DDD4A06DFFF76FFCD9E7054B9C42EF
:10590C0001D1AC68DFE7044B9C4208BFEC68DAE7D6
:10591C0048720008687200082872000838B50446FE
:10592C00084611460022054D2A601A46FFF72AF94F
:10593C00431C02D12B6803B1236038BD7C170020B7
:10594C0070B50E46B1F90E10144600291D4696B0DE
:10595C0007DA00232B60B3891A0610D44FF4806346
:10596C000EE06A4600F0DEFC0028F2DB019A02F43D
:10597C007042A2F500535A425A412A60EEE7402386
:10598C000020236016B070BD8B8973B59D07064649
:10599C000C4607D504F1470323602361012363619F
:1059AC0002B070BD6A4601ABFFF7CAFF009905460D
:1059BC003046FFF77DFC48B9B4F90C309A05EFD4AA
:1059CC0023F0030343F00203A381E3E70D4BB3621F
:1059DC00A389206043F08003A381009B2061636155
:1059EC00019B5BB13046B4F90E1000F0ADFC28B150
:1059FC00A38923F0030343F00103A381A08905438A
:105A0C00A581CDE7F54F00080148FFF7E4BB00BFC7
:105A1C00741700200148FFF7DFBB00BF741700208C
:105A2C00F8B5074614460E4621B91146BDE8F840B4
:105A3C00FFF73EBC22B9FFF7EFFB25462846F8BD21
:105A4C0000F0BAFCA0420FD221463846FFF730FCDA
:105A5C0005460028F2D031462246FFF7C7FB3146F7
:105A6C003846FFF7D9FBE9E73546E7E72DE9F0477C
:105A7C008E6882469E420C4690461F4638D88A89CC
:105A8C0012F4906F32D0256809690133A5EB010936
:105A9C0065694B4405EB450505EBD5756D109D42CD
:105AAC0038BF1D46530531D52946FFF701FC064684
:105ABC0050B90C234FF0FF30CAF80030A38943F0E3
:105ACC004003A381BDE8F0874A462169FFF78EFBAE
